:100000000C9434000C9449000C9449000C94490061
:100010000C9449000C9449000C9449000C9449003C
:100020000C9449000C9449000C9449000C9449002C
:100030000C9449000C9449000C9449000C9449001C
:100040000C9449000C9449000C9449000C9449000C
:100050000C9449000C9449000C9449000C944900FC
:100060000C9449000C94490011241FBECFEFD8E036
:10007000DEBFCDBF11E0A0E0B1E0E4E6F4E002C0F5
:1000800005900D92AE30B107D9F70E94D2000C94C2
:1000900030020C94000080917C00887F80937C006B
:1000A00080917C0080937C0080917A0080648093B2
:1000B0007A0080917A0084FFFCCF80917A00806181
:1000C00080937A0080917800909179000895FC01E6
:1000D0009191911101C0089525B12F70892F807FD2
:1000E000282B25B92A9A2B9A2AE12A95F1F700C0E4
:1000F0002B98A7EEB3E01197F1F700C0000045B1CF
:100100004F70B0E19B9F90011124242B25B92B9AAD
:100110002AE12A95F1F700C02B988FEF90E7A2E033
:1001200081509040A040E1F700C00000D1CF95B1D0
:100130009F70282F207F922B95B92A982B9A2AE11D
:100140002A95F1F700C02B98E7EEF3E03197F1F72D
:1001500000C0000095B19F70F0E18F9F90011124C5
:10016000892F822B85B92B9A2AE12A95F1F700C0B5
:100170002B984FEF80E792E0415080409040E1F7AC
:1001800000C00000089581E00E9497002FEF80E7F3
:1001900092E0215080409040E1F700C0000080E8EC
:1001A0000C949700CF93DF93CDB7DEB7A1970FB62E
:1001B000F894DEBF0FBECDBF8FEF84B92FEF80E77D
:1001C00092E0215080409040E1F700C0000082E0C2
:1001D0000E94970088E20E9497008CE00E9497009E
:1001E00086E00E94970081E00E9497008FE19EE4E4
:1001F0000197F1F700C000002224239480E4582ED8
:1002000097E8492E08EE13E021E3322E30E3732EF7
:1002100040E2642E50E2E52E53E0F52E68E5C62E4E
:1002200062E0D62E70E9A72EBB24B394E8EC8E2EA4
:10023000912C50985198589A599A549A89B199B1D9
:1002400081709270892B09F078C05C989FEF23ED44
:1002500080E3915020408040E1F700C000005092C0
:100260007C0040927A000E944B009FEF23EC89E0D3
:10027000915020408040E1F700C000008DE0E0E0B8
:10028000F1E0DE01559601900D928A95E1F780919B
:100290008000836880938000809181008B608093D0
:1002A0008100219A50927C0040927A000E944B007B
:1002B0009FEF23EC89E0915020408040E1F700C09F
:1002C0000000809178009091790080917800909161
:1002D0007900893C9105D8F50E94C300909289006D
:1002E0008092880082E389837A827B826C828CE4AC
:1002F0008D8384E78E8382E78F8383E788878EE20E
:1003000089871A86CE0145960E94670080EC0E947C
:100310009700CE0101960E9467008FE39CE9019748
:10032000F1F700C000009FEF21EE84E091502040E3
:100330008040E1F700C000007CCF99B189B186957B
:100340008170821511F090FD80CF5C9A7FCF8091F3
:10035000780090917900893C910580F18091780036
:10036000909179008139914048F50E94C300B09284
:100370008900A092880084E389837A827B826C82E0
:100380008CE48D8384E78E8382E78F8383E788877D
:100390008EE289871A86CE0145960E94670080EC1E
:1003A0000E949700CE0101960E9467008FEF91EEA8
:1003B00024E0815090402040E1F7BCCF809178004C
:1003C000909179008139914078F0809178009091F6
:1003D00079008935924040F40E94C300D092890090
:1003E000C092880086E3C8CF809178009091790010
:1003F0008935924078F0809178009091790081322F
:10040000934040F40E94C300F0928900E09288007B
:1004100088E3B2CF80917800909179008132934047
:1004200008F407CF8091780090917900893E93403D
:1004300008F0FFCE0E94C30010938900009388004B
:1004400039827A827B827C826D828CE48E8384E71F
:100450008F8382E7888783E789878EE28A879BCFAD
:04046000F894FFCF3E
:0E0464005761746572204C6576656C3A000035
:00000001FF
